:020000040800F2
:1000000000040020C10100088113000881130008CA
:100010008113000881130008811300088113000870
:1000200081130008811300088113000801030008F0
:100030008113000881130008811300088113000850
:100040008113000881130008811300088113000840
:100050008113000881130008811300088113000830
:10006000811300088113000881130008410E000865
:10007000110E0008E10D0008B10D0008810D000807
:10008000510D0008210D000881130008811300089C
:1000900081130008811300088113000881130008F0
:1000A00081130008811300088113000881130008E0
:1000B000D10A00088113000881130008C117000845
:1000C000E11600088113000881130008811300085D
:1000D0008113000881130008A1140008811300088F
:1000E00081130008811300088113000881130008A0
:1000F000811300088113000881130008F10C000827
:10010000811300088113000881130008811300087F
:10011000811300088113000881130008811300086F
:10012000C10C0008910C0008610C0008310C00089B
:10013000010C0008811300088113000881130008D6
:100140008113000881130008811300083119000889
:10015000D10B0008A10B0008710B000881130008E7
:10016000811300088113000881130008811300081F
:10017000811300088113000881130008811300080F
:1001800081130008811300088113000881130008FF
:1001900081130008811300088113000881130008EF
:1001A00081130008811300088113000881130008DF
:1001B00081130008811300088113000881130008CF
:1001C00072B6344880F3098840F20000CCF2000097
:1001D0004EF63471CEF200010860BFF34F8FBFF3CB
:1001E0006F8F40F20000C0F2F0004EF68851CEF260
:1001F00000010860BFF34F8FBFF36F8F4FF0000017
:10020000E1EE100A4EF63C71CEF2000108600620C5
:1002100080F31488BFF36F8F01F002F901F038FF0B
:100220004FF055301C491D4A91423CBF41F8040B28
:10023000FAE71B49174A91423CBF41F8040BFAE721
:100240001849194A194B9A423EBF51F8040B42F81B
:10025000040BF8E700201649164A91423CBF41F8CA
:10026000040BFAE701F094F801F0D2F8124C134DA8
:10027000AC4203DA54F8041B8847F9E702F090FE19
:100280000F4C104DAC4203DA54F8041B8847F9E7D1
:1002900001F0B6B800080020000000200004002093
:1002A0000004002050390008000800200008002049
:1002B00000080020A8110020C0010008C0010008AB
:1002C000C0010008C001000800000000000000009C
:1002D0002DE9F04F2DED108AC1F80CD0C3689D4672
:1002E000BDEC108ABDE8F08F002383F31188284607
:1002F000A047002001F01CF800F0E2FD00DFFEE75F
:1003000080B4094A536823F0010300AF5360EFF350
:100310000983683383F30988002383F31188BD467A
:100320005DF8047B704700BF30EF00E00000000084
:1003300010B4202383F31188094C0A4B22681968F2
:10034000C31D23F00703891A8B429DBF9B182360AE
:1003500010460020002383F311885DF8044B70479A
:10036000540E0020500E002000000000000000008D
:10037000202383F31188037F072B0ED8DFE803F0D7
:10038000280D0D2408040D08026A93680133936058
:1003900090E80C001A600268536010B400224FF01D
:1003A000FF3481680C4B046202771B689A688A42AA
:1003B000FBD25A684260036000211060586081F3EC
:1003C00011885DF8044B7047036A00221A60E4E765
:1003D000002383F311887047980B00200000000071
:1003E000FEE700BF00000000000000000000000069
:1003F00090F84020062A0CD838B50123934013F01A
:10040000670F044612D113F0080503D1DB0623D48D
:1004100038BD7047C3689B695B68002BF8D1C36C1B
:1004200003B19847002384F8403038BD036E41681B
:10043000D3F800290D6842F40012C3F80029D3F85C
:10044000002B42F40012C3F8002B0DB10621A8477F
:10045000062384F8403038BD052380F8403020233F
:1004600083F31188C36802895B6942F0010202814B
:1004700029469D601D605D6001F06AFE85F311886C
:1004800038BD00BF000000000000000000000000B8
:1004900038B590F840300446062B1AD8DFE803F050
:1004A000041A2A0404410400036E4168D3F80029A9
:1004B0000D6842F40012C3F80029D3F8002B42F46F
:1004C0000012C3F8002B0DB10621A847062384F8BB
:1004D000403038BD90F8571090F85630826C43EA9F
:1004E0000123934206D9C3681B8AB2FBF3F503FBD1
:1004F0001525EDB1032384F84030202383F31188C0
:10050000E36862899B69002542F00102628120460E
:100510009D601D605D60294601F072FE85F31188C3
:1005200038BDC36C03B19847002384F8403038BD10
:10053000202383F31188C36802895B6942F00102BA
:10054000028129469D601D605D6001F001FE85F31A
:100550001188022384F8403038BD00BF000000003D
:10056000F8B500EB8101002380F84030CB68426889
:100570001B6A19685B68436501659368044653B359
:10058000984740B3A16C94F8503094F8570094F811
:10059000562042EA00228A422CBF0A46A26419066B
:1005A00000F19480002A56D1052384F8403020239E
:1005B00083F31188E36822895B69002542F0010218
:1005C000228120469D601D605D60294601F0C0FDCE
:1005D00085F31188F8BD94F8503013F06005194682
:1005E00016D0226ED2F80039616843F40013C2F8C5
:1005F0000039D2F8003B0D6843F40013C2F8003B09
:1006000015B106212046A847062384F84030F8BDDE
:1006100094F8510003F07F0242EA0022B2F5407FD5
:1006200000F04F812FD9B2F5C06F00F0318166D94B
:10063000B2F5106F00F08F8040F602418A4200F060
:100640002581B2F5006FCCD104F15B020121E56494
:100650006264A16499E7042384F84030202383F383
:100660001188E36862899B69A16C666C42F00102A3
:1006700000256281204683E86200294601F0C0FD22
:1006800085F31188F8BD022A00F0E68040F2DC8094
:10069000B2F5807F00F08E80B2F5817FA1D194F811
:1006A0005230002B9DD194F8543013F00F0234D007
:1006B00013F0800F236E03EB421340F02B81D3F82D
:1006C000002B22F40012C3F8002B26E062B30123B2
:1006D00084F84030202383F31188E36822895B6922
:1006E000A16C666C42F0010200252281204683E85D
:1006F0006200294601F02CFD85F31188F8BD40F217
:1007000002339A423ED0B2F5A06F7FF46AAFB4F8DC
:100710005030B3F5A06F00F0E58000236364A3645C
:10072000E3640B067FF540AF032384F840302023B9
:1007300083F31188E36862899B69002542F0010216
:10074000628120469D601D605D60294601F058FD74
:1007500085F31188F8BD94F8523094F85B209A42E2
:10076000DBD02278042A34D04BB10421626884F8AB
:100770005B302170136813B102212046984794F82A
:100780005010CAE794F85230002B7FF42AAF94F847
:10079000543013F00F02C0D013F0800F236E03EB20
:1007A000421340F0BE80D3F8002B42F40012C3F88D
:1007B000002BB2E794F85230012B7FF412AFB4F85B
:1007C0005830656423F00203A564E564A4F858304A
:1007D000A7E7202383F31188606E2289638901686B
:1007E000A16602F0010203F00103266E87682281F0
:1007F000294625616561A561E56163812A464FF05F
:10080000FF3006EB411301318F42C3F80029C3F8D2
:100810001029C3F80809C3F8002BC3F8102BC3F83C
:10082000080BEED24FF00113C6F81C3882F3118882
:100830000321636884F85B2021701B680BB120469C
:10084000984794F852308FE7EAB904F15800022132
:10085000E2646064A16498E694F8542002F00F0109
:1008600016064CBF483158314901226E51580D04CB
:100870007FF5B8AE880233D42D4A6264022100228B
:10088000A164E26481E6012A7FF4ABAE294AF4E771
:1008900094F85500616894F854304E6894F85220EA
:1008A00094F8531043EA00232046B04700283FF451
:1008B00098AE90E80A00E5646364A16494F850304F
:1008C00063E694F85230012B7FF48BAEB4F85830C5
:1008D000656443F00203A564E564A4F8583020E79A
:1008E000154ACAE794F85200226E84F85A00D2F8EA
:1008F0000038656823F4FE632D6843EA0013C2F8EC
:10090000003825B101212046A84794F85010032350
:10091000237002E7D3F8002922F40012C3F800295B
:10092000FBE6D3F8002942F40012C3F80029F4E6EC
:1009300020360008C03600083036000800000000ED
:10094000827A70B45309134E134D203302F01F0402
:10095000012101FA04F4324446F82340002382F8CE
:100960000033427A2B68914023EA010313F0FF0F12
:100970002B6004D109490A6B22F400120A6313F4B4
:100980007F4F04D1054A136B23F48003136370BCBB
:10099000704700BF00E100E04C0E0020003802402C
:1009A000F0B5294F467AD7F800E0012404FA06F59D
:1009B00015EA0E0F44D1254C45EA0E0504EBC60E90
:1009C00015F0FF0F3D6044F83620CEF8043004D017
:1009D0001F4C236B43F40013236315F47F4F29D17D
:1009E00005682B6823F01F032B602B6813F00103AD
:1009F000FBD1077A44683D26BE40212726602B6044
:100A00006F61FAB1807A420900F16045920005F504
:100A1000614502F16042090102F5614200F01F00E8
:100A2000C9B20124844085F800131846C2F88041F9
:100A30001460F0BD064C236B43F480032363CFE7BF
:100A40002046F0BD1046F0BD4C0E0020CC0D00201D
:100A5000003802400000000000000000000000001C
:100A6000202383F31188144B5B6813F4006302D1D5
:100A700083F31188704780B400AFF1EE103AEFF3C2
:100A800009830E4A4FF08071D26843F8082C43F86E
:100A90004C1CA3F1680282F30988094A1168926923
:100AA0008968926891428CBF064A074A43F8502CE5
:100AB000BD465DF8047B704700ED00E030EF00E0DC
:100AC000980B0020F9020008FC020008000000005A
:100AD0002DE9F8434FF0804633699B0703D4BDE806
:100AE000F843FFF7BDBF00253561202787F3118844
:100AF0001B4C716AE369A26AD3F808E0881A704552
:100B000004F11C0819D31968D3F80C9072444145BC
:100B1000A262C1F80480E161DD6008BFF56085F381
:100B200011881869C84787F31188E369716AA26A56
:100B3000D3F808E0881A8645E5D9434508D07244C1
:100B4000521A4FF08043022A2CBF8A188A1C5A631B
:100B5000002383F31188BDE8F843FFF781BF00BF8E
:100B6000980B0020000000000000000000000000C2
:100B7000084B09485968826F890D01F03D0110B595
:100B80008C05DC600AB1C06F9047BDE81040FFF7EC
:100B900067BF00BF00640240CC0D002000000000D1
:100BA000084B09485968026F090C01F03D0110B566
:100BB0000C04DC600AB1406F9047BDE81040FFF7BD
:100BC0004FBF00BF00640240CC0D002000000000B9
:100BD000084B09485968826E890901F03D0110B53A
:100BE0008C01DC600AB1C06E9047BDE81040FFF791
:100BF00037BF00BF00640240CC0D002000000000A1
:100C000008B5074B07485968026E01F03D01D960ED
:100C10000AB1406E9047BDE80840FFF721BF00BF12
:100C200000640240CC0D0020000000000000000025
:100C3000084B09481968826D890D01F03D0110B516
:100C40008C059C600AB1C06D9047BDE81040FFF76D
:100C500007BF00BF00640240CC0D00200000000070
:100C6000084B09481968026D090C01F03D0110B5E7
:100C70000C049C600AB1406D9047BDE81040FFF73E
:100C8000EFBE00BF00640240CC0D00200000000059
:100C9000084B09481968826C890901F03D0110B5BB
:100CA0008C019C600AB1C06C9047BDE81040FFF712
:100CB000D7BE00BF00640240CC0D00200000000041
:100CC00008B5074B07481968026C01F03D019960AF
:100CD0000AB1406C9047BDE80840FFF7C1BE00BFB5
:100CE00000640240CC0D0020000000000000000065
:100CF000084B09485968826B890D01F03D0110B518
:100D00008C05DC600AB1C06B9047BDE81040FFF76E
:100D1000A7BE00BF00600240CC0D00200000000014
:100D2000084B09485968026B090C01F03D0110B5E8
:100D30000C04DC600AB1406B9047BDE81040FFF73F
:100D40008FBE00BF00600240CC0D002000000000FC
:100D5000084B09485968826A890901F03D0110B5BC
:100D60008C01DC600AB1C06A9047BDE81040FFF713
:100D700077BE00BF00600240CC0D002000000000E4
:100D800008B5074B07485968026A01F03D01D96070
:100D90000AB1406A9047BDE80840FFF761BE00BF56
:100DA00000600240CC0D00200000000000000000A8
:100DB000084B094819688269890D01F03D0110B599
:100DC0008C059C600AB1C0699047BDE81040FFF7F0
:100DD00047BE00BF00600240CC0D002000000000B4
:100DE000084B094819680269090C01F03D0110B56A
:100DF0000C049C600AB140699047BDE81040FFF7C1
:100E00002FBE00BF00600240CC0D0020000000009B
:100E1000084B094819688268890901F03D0110B53D
:100E20008C019C600AB1C0689047BDE81040FFF794
:100E300017BE00BF00600240CC0D00200000000083
:100E400008B5074B074A196801F03D01996013681E
:100E50000BB150689847BDE80840FFF701BE00BFDE
:100E600000600240CC0D00200000000000000000E7
:100E70000E4B0F4A5B68C168F0B48768566F4268D2
:100E8000D0E90445DB1B9B1BE41845F100059342A8
:100E9000026888BF436001319342C0E90445C160E4
:100EA000836038BF0360F0BC704700BF001000E0F3
:100EB000980B00200000000000000000000000006F
:100EC0000D4A106870B40368946913600126002508
:100ED000A1685A6006779061257700E01B689A68E0
:100EE0009142FBD35A6862602360214614605C60C3
:100EF00070BCFFF7EDB900BF980B002000000000A8
:100F0000074B99691A6810B40877106818600124B3
:100F10004360147710465DF8044B9A61FFF7D8B927
:100F2000980B0020000000000000000000000000FE
:100F3000F0B54B1C87B04CD0404C2546A3690593B7
:100F400055F81C3F02294FF0804E074638BF02215A
:100F50003B48DEF824200490AB425AD0A06A121A13
:100F600089189A6831D291423CBF4018CEF83400BB
:100F7000914204D91B68891A9A688A42FAD35A683E
:100F8000029201AE019316605E6003919A68511A55
:100F90004FF0FF32996062623846FFF7B1FF049B61
:100FA0007BB1E369B3421BD0029A019B1360019BA2
:100FB0000021AB425A60049103D09A6803990A4415
:100FC0009A60A369186A07B0F0BD1B68891A9A680D
:100FD000CEE71A4CFFF794FFA369186A07B0F0BD7B
:100FE000019AE2610023AA425560049322D09368DB
:100FF0000398A16A03444FF080459360686A421ADF
:101000009342DED99B1A022B2CBFC318831C6B633F
:10101000D7E7A262881801AE00220223019502954B
:101020000391E6612662CEF83400CEF81020CEF8A7
:101030000C30B1E74FF08042D360C2E7980B00203C
:101040007103000800000000000000000000000024
:1010500069B1084B9B6910B4186044685C60024633
:101060002360042053605DF8044BFFF761BF4FF02D
:10107000FF307047980B00200000000000000000C7
:101080002DE9F04F83B004460D4616460193D0F883
:101090001C804FF0200989F311880027BA46A36805
:1010A00005F1010B204603B36169A3684A1C013BAB
:1010B0006261A3602B780B7023696169994224BF38
:1010C000E3686361B8F1000F00D0C0478AF311886C
:1010D000013E07F1010712D089F31188A3685D462C
:1010E00005F1010B2046002BDED10199009320462B
:1010F000FFF7AEFF009B0028D1D083F3118838465C
:1011000003B0BDE8F08F00BF000000000000000049
:101110003030FFF7B5BF00BF000000000000000046
:1011200030304FF0FF33FFF7ABBF00BF00000000CF
:10113000F8B504460F461646202383F3118803E0D2
:10114000FFF786FF002819DBA56831462046002DF1
:10115000F6D06269A368511C013B6161A3601770FE
:10116000236962699A4224BFE3686361E3690BB152
:1011700020469847002080F31188F8BD85F3118838
:10118000F8BD00BF000000000000000000000000EB
:101190003030FFF7CDBF00BF0000000000000000AE
:1011A00030304FF0FF32FFF7C3BF00BF0000000038
:1011B0002DE9F04F044683B0894693461D46D0F88A
:1011C0001C80202787F3118800260197B246B8F1CA
:1011D000000F05D02046C04702E0FFF739FFE0B915
:1011E000A76829462046002FF7D0A269A368511CA2
:1011F000013BA161A360137809F8013B2369A2694F
:101200009A4224BFE368A3618AF311880136B3458B
:1012100005D0019B83F31188D9E787F31188304605
:1012200003B0BDE8F08F00BF000000000000000028
:101230000C30FFF7BDBF00BF000000000000000041
:101240000C304FF0FF33FFF7B3BF00BF00000000CA
:1012500070B520230E46044683F31188C3692BB171
:10126000984703E0FFF7F4FE002815DBA568314638
:101270002046002DF6D0A169A36825694A1C013BD0
:10128000AA42A360A26128BFE368087828BFA361CF
:10129000002383F3118870BD85F3118870BD00BFF2
:1012A0000C30FFF7D5BF00BF0000000000000000B9
:1012B0000C304FF0FF31FFF7CBBF00BF0000000044
:1012C00008B50146202383F311880820FFF730FE7C
:1012D000002383F3118808BD000000000000000017
:1012E00000228168084B10B4044602771B689A6894
:1012F0008A42FBD25A6862602360204614605C60B8
:101300005DF8044B704700BF980B00200000000000
:1013100003682BB10022026018461962FFF7E0BF94
:10132000704700BF00000000000000000000000047
:1013300038B52022034682F311880E4A9469606A08
:10134000236204F12405854206D003686362FFF737
:10135000C7FF606AA842F8D1637F9B0704D1636925
:1013600022691A61226953610F20BDE83840FFF7F6
:10137000C7BD00BF980B0020000000000000000067
:10138000FEE700BF000000000000000000000000B9
:10139000F0B5134F134D144C144B154907F1700E53
:1013A00000269C4211D904391A4651F8040F42F81C
:1013B000040B9442F9D8DA43144424F003040434AF
:1013C00023449D4203D943F8046B9D42FBD87745E3
:1013D00004D007F110013AC91037E2E7F0BD00BFB1
:1013E00040360008A8110020A8110020A8110020F4
:1013F000503900080000000000000000000000005C
:10140000FEE700BF00000000000000000000000038
:10141000704700BF00000000000000000000000056
:10142000704700BF00000000000000000000000046
:10143000024AD36843F08003D36070470044004001
:1014400011F00C0F00D1704772B6024B024ADA62FB
:10145000FEE700BF980B00201037000800000000D6
:1014600011F00C0F13D1026B406B1368196821F057
:101470001F0119601968C907FCD4117A52683D230D
:101480008B401360436843F400734360704772B647
:10149000014B024ADA62FEE7980B00201037000881
:1014A0002DE9F043674D6E6FD6F80C903368DA057E
:1014B00083B09CB27DD4202383F3118814F02F0FC6
:1014C00046D0614F4FF0000807E0A10673681CD4B6
:1014D0003468A4B214F02F0F3AD02307F5D014F0DB
:1014E000080F0CBF00208020E10748BF40F020001B
:1014F000A20748BF40F04000630748BF40F4807037
:1015000001F0CEF9A1067368E2D56A69002A40D0DD
:101510002A6A696A8A4245D06969501C0131286289
:10152000696113702A6AEB699A4201D3AB692B6235
:10153000EB68BB42CCD01A68EA6018465760C3F823
:101540002080FFF7CDFE3468A4B214F02F0FC4D171
:10155000002383F3118819F0800F01D0220636D4BE
:10156000630611D5202383F311886A6CAB6C9A4211
:1015700052D04FF6BF7309EA03036FF04002F360E5
:101580000023326083F3118803B0BDE8F043FFF716
:1015900067BA0420019301F083F92A6A696A019B02
:1015A0008A42B9D169690029B6D0802001F078F962
:1015B0008EE7202383F311884FF4007001F070F957
:1015C0006FF480733360002383F3118873E7202363
:1015D00083F31188AB6C6A6C9A4224D0AA6B296C95
:1015E000581C0132AA63A86488421F7801D3EB6BB0
:1015F000AB642B6B154A934209D0196829634FF0ED
:10160000000E4A601846C3F820E0FFF769FE7760D5
:10161000002383F31188A3E7AB6B002BA9D0102024
:1016200001F03EF9A5E7AA6B002AD7D0082001F007
:1016300037F94FF63F7309EA030343F04003F360C1
:10164000E6E700BFA8080020B4080020D808002062
:1016500011F00C0F38B532D1416A0B681A6822F0CC
:101660001F021A601A68D407FCD40D7A026A4C680B
:1016700013683D21A9402160196821F01F011960FC
:101680001968C907FCD4436851680446107A1A687F
:101690003D2383400B60BAB104232370204690475A
:1016A0002378042B10D0202383F31188002104F128
:1016B0000800FFF72DFE002383F3118838BD72B6B2
:1016C000034B044ADA62FEE702232370EBE700BF14
:1016D000980B0020103700080000000000000000F8
:1016E0003348F8B5446B076B65693A6805F45F43A6
:1016F000DB436361136823F01F031360A9B213680F
:10170000DB07FCD43A7AC66A7F683D23934032688F
:101710003B60136823F01F0313601368DF07FCD4DA
:10172000377A72683D23BB40136011F4807318BF91
:1017300001238E05836044BF43F0020383604A05A2
:101740000AD5626822F400726260226843F00403E2
:1017500042F40072226083600F0544BF43F0080327
:1017600083604E0444BF43F020038360CC0413D550
:1017700043F010032904836016D4202383F31188D7
:101780006FF001010B48FFF7C3FD002383F31188BD
:10179000BDE8F840FFF764B92A0405D4002BECD16A
:1017A000BDE8F840FFF75CB943F040038360E4E72D
:1017B000700800208C0800200000000000000000DD
:1017C0003A483B4A70B5446BA369656945EA0343EF
:1017D00023F07F4393424CD01ED8073A93423CD02B
:1017E0000132934210D16268C36A22F400721B680E
:1017F00062601A6842F001021A60626842F4805224
:1018000062605B68012B4BD915F00A0F18BFA36902
:10181000BDE87040FFF724B9264A934212D0023245
:101820009342F1D1C36A1B685E683EB32368028CA1
:1018300043F4A06342F0010202842360BDE87040DB
:10184000FFF70EB96368026B23F4007312686360DC
:10185000136843F001031360D6E7038C1A0A0BD018
:1018600003F0010343F0F00302F006021343236187
:10187000CAE7038CC3F347032361C5E7636823F416
:1018800000736360236843F400732360202383F3B1
:1018900011881C303146FFF73BFD86F31188B3E712
:1018A000236823F480632360AEE700BF7008002044
:1018B0000800030082000700000000000000000094
:1018C00011F00C0F26D170B5C56A436B29680A6800
:1018D00022F01F020A600C6814F00104FBD12E7A7A
:1018E00069683D22B2400A605A6822F480525A6008
:1018F0001A6822F480621A601A6842F400721A6050
:10190000202383F311881C302146FFF701FD84F367
:10191000118870BD72B6024B024ADA62FEE700BF60
:10192000980B0020103700080000000000000000A5
:101930002DE9F04F8D4E356E6F69AB691F4017F47E
:10194000805983B06F6140F01581002FC0F2F180A3
:10195000390500F1DE80BA040CD5D5F8083813F04B
:10196000060FEB6823F470530CBF43F4105343F499
:10197000A053EB603B0730D4FC0236D4B80200F130
:101980009A80FB0600F188807E03D5F818480ED5B2
:10199000E50700F18F81A00700F18881610700F160
:1019A0008181220700F17A81E30600F15C813E0328
:1019B0000ED5E50300F16281A00300F165816103AA
:1019C00000F16881220300F15581E30200F14381B7
:1019D00003B0BDE8F04FFFF743B87368DB68002B36
:1019E000CAD062489847FC02C8D5DFF884A1D6F86F
:1019F000608000244FF0010B06E0736E01349B6899
:101A0000E4B29C42A146B9D808EB4412D2F800399E
:101A100003F44023B3F5802FEFD1D2F80039002B27
:101A2000EBDAD2F8003943F09043C2F80039D2F82B
:101A30000039002BFBDB4FEA8919326E49F0200395
:101A4000136113699906FCD400F01AFF06EB8403B6
:101A50003189DB680BFA04F29B686FEA020909EA34
:101A60000101318123B12146404801929847019AF2
:101A7000202383F31188D8F83438F16E09EA030380
:101A80000A43C8F8343850460021F266FFF740FC9C
:101A9000002383F31188B0E7202383F31188AB6917
:101AA000334823F01003AB610021FFF731FC002322
:101AB00083F3118868E7D6F86080DFF8B0A00024CF
:101AC0004FF0010906E0736E01349B68E4B29C425A
:101AD0003FF657AF08EB4412D2F8003B03F4402323
:101AE000B3F5802FEFD1D2F8003B002BEBDA06EBF9
:101AF00084037289D96809FA04F3D1F80CB022EA98
:101B00000303214650467381BBF1000FDBD0D84759
:101B1000D9E7327886F85C207368052232701B683A
:101B20000022F266002B3FF416AF04210F489847BD
:101B300011E7D5F8003E980705D0D5F8003E23F010
:101B40000303C5F8003E96F85C3072683370D5F830
:101B50000438126843F00103C5F80438002A3FF442
:101B6000F7AE052101489047F2E600BF500900207A
:101B7000C0090020002302212022F366A6F8583075
:101B800086F85A3086F85B30F36033617361B36175
:101B9000F36186F840303381738131702A612C699A
:101BA00014F02004FBD100F06BFE776EC5F83448CA
:101BB0004FF00113B868C5F81C384FF000614FF0C2
:101BC000FF3205EB441301348442C3F80019C3F813
:101BD000001BC3F80829C3F8082BF2D93B68B36689
:101BE0003A68336E6A6210221A611C6914F010049C
:101BF000FBD100F045FED5F800387168B26E0F6871
:101C00002E482F4923F4FE63C5F80038AB6943F42E
:101C1000402343F01003AB610923F06002F1100090
:101C200042F48012C5F81038B066C5F81438C5F80B
:101C3000104BC5F8001BC5F81049C5F80019AA6279
:101C4000002F3FF4C5AE21461E48B84703B0BDE89B
:101C5000F04FFEF705BF042001F01AF803B0BDE80D
:101C6000F04FFEF7FDBE042001F06AF83E037FF559
:101C7000AFAE9EE6032001F00BF8A6E6002001F0CF
:101C800007F8A0037FF59BAE012001F001F8610386
:101C90007FF598AE022000F0FBFF93E6032001F0F1
:101CA0004FF881E6022001F04BF87AE6012001F0BE
:101CB00047F873E6002001F043F86CE6E0360008D0
:101CC00040800010500900200000000000000000CB
:101CD0000EB42DE9F04F86B00FAF002357F8046B18
:101CE000029705469A463178731C61B1252910D0B8
:101CF0002A681E4692682846904731780AF1010A00
:101D0000731C0029F2D1504606B0BDE8F04F03B075
:101D1000704772782D2A03BFB278B31C4FF0010CC4
:101D20004FF0000C302A03BF5A7801334FF03009CE
:101D30004FF02009591C002405E03B78043711F8C6
:101D4000012B03EB4004A2F13003DBB2092B0E465A
:101D500004EB8400F3D92A2AEFD02E2A4FF0000199
:101D600043D002F0DF034C2B4ED0A2F144003428C4
:101D700000F24E81DFE810F0FB004C014C014C01F9
:101D80004C01FB004C014C014C014C014C01F50095
:101D90004C014C014C014C014C0188004C014C01A0
:101DA000F8004C014C014C014C014C014C014C0120
:101DB0004C014C014C014001FB004C014C014C0119
:101DC0004C01FB004C014C014C014C014C01F50055
:101DD0004C014C014C0126014C0188004C014C0186
:101DE000F8003B78043703EB400116F8012BA2F111
:101DF0003003DBB2092B01EB8100F4D92A2AF0D0A1
:101E000002F0DF034C2BB0D133780BB101361A4608
:101E1000A2F14403342B00F2FB80DFE813F0A800AA
:101E2000F900F900F900F900A800F900F900F9003B
:101E3000F900F900A200F900F900F900F900F90031
:101E40003500F900F900A500F900F900F900F900E2
:101E5000F900F900F900F900F900F900ED00A80017
:101E6000F900F900F900F900A800F900F900F900FB
:101E7000F900F900A200F900F900F900D300F90017
:101E80003500F900F900A5004FF00A083A680DF195
:101E90001701043700E00146B2FBF8FE08FB1E22E2
:101EA00002F13003392BC8BF02F13703DBB27246AF
:101EB00001F8013C481E002AEDD10DF117020DF189
:101EC0000C08121AC646104401E011F8013B0EF846
:101ED000013B8842F9D1531E0193A41A3BD4BCF1B3
:101EE000000F40F09E80C4F1000B002C00F09880A1
:101EF00098F800102D2900F0A3802B6849469B68B4
:101F0000284698471BF1010BF7D1019B002BA244F7
:101F1000A8BF5C46FFF6E7AEDDF804B02B6818F802
:101F2000011B9B680BF1FF3B28469847BBF1FF3F25
:101F3000F4D1019B0AF1010A9A44002C3FF4D3AE7C
:101F4000A0462B6849469B6828469847B8F1010887
:101F5000F7D1A244C7E6019B002BA8BF0024DBDA1F
:101F6000C1E64FF0080891E74FF010088EE7396896
:101F7000002907F1040773DB0DF10C08424602F15A
:101F80000B03019318463E4BA3FB01E3DB0803EB75
:101F9000830B9E46A1EB4B033033DBB2714600F856
:101FA000013D0029EFD10199091A114401E010F80F
:101FB000013F02F8013B8A42F9D1A2EB0802531E0D
:101FC00001938AE7D7F800800437B8F1000F50D0AA
:101FD00098F8003051B36BB30139424601E0013942
:101FE00003D412F8013F002BF9D1A2EB0802531ED3
:101FF00001934FF0200970E70DF118083B6808F8CD
:102000000C3D00230437019301224FF0200964E7BF
:102010000DF11808002308F80C2D019301225CE74C
:102020005C46019B002BBFF677AF86E747F6FE7153
:10203000002BD2D14FF0FF3301934FF020094EE730
:10204000B9F1300F7FF459AF2A682846926890475B
:10205000019B013B08F101080AF1010A01934CE7D9
:102060002D2349428DF80C300DF10D020DF10C08B5
:1020700085E7DFF810800029AED147F6FF71ABE7A6
:10208000CDCCCCCCD0360008000000000000000011
:102090002A4A2B4B4FF080504FF4004110641960D6
:1020A000136843F00103136013689907FCD5936824
:1020B000224923F003039360936893608B6813F0C5
:1020C0000C03FBD10A681D4802F0F9020A608B601C
:1020D0000B6843F480330B6003689B03FCD5436FAC
:1020E000164A43F001034367536F9907FCD5154B1C
:1020F00053601368124943F0807313604B685A04AD
:10210000FCD50E490B689B01FCD50F4B0F4A8A602A
:1021100040F202721A608B68084A43F002038B6037
:10212000936803F00C03082BFAD1536C43F48043FB
:102130005364536E43F48043536670470038024043
:102140000070004008544107003C024000108838ED
:1021500000EB8103F0B4DC6862691368D360F3B903
:10216000026E02EB41134FF40020C3F810092368FC
:1021700003F00303012B26D008B202EB4010012329
:10218000D0F8004944F00444C0F80049D2F83408BB
:1021900003FA01F10143C2F83418F0BC704719B3D7
:1021A00043F00055026E268A02EB4117701E03446D
:1021B000B3FBF6F345EAC343C7F81039236803F0CD
:1021C0000303012BD8D108B2D2F8083802EB40142F
:1021D00013F4807FD4F8003914BF43F0805343F0E8
:1021E0000053C4F80039C8E7402BD9D94023014D2A
:1021F0001360D7E74000002000000000000000004E
:1022000000EB810330B4DD68AB691C68DC6019B990
:10221000402C84BF40241C606B8A006E2D685A1EBF
:102220002244B2FBF3F202FB03F3033323F0030374
:1022300043EAC24300EB411405F0030243F0C043FC
:10224000012AC4F8103B0AD009B200EB411130BC9E
:10225000D1F8003B43F00443C1F8003B704709B29A
:10226000D0F8083800EB411213F4807FD2F8003B1D
:1022700014BF43F0805343F00053C2F8003BE4E73F
:102280002DE98048C54BC64A9B69C64FDFEDC69A0B
:102290009FEDC69A9FEDC68ADFEDC68A9A6185B02A
:1022A000C54B1D68C54B0024012D1C7000F0AE818C
:1022B000022D00F0A580C249C248FFF709FD202386
:1022C00083F31188C04BC04A1B78C0495160012B71
:1022D00000F0378240F20F30BB4BBB499A6ADB6A91
:1022E00023F4F04322F4F042CB62CB698A620024EB
:1022F00007221C6018605A601A6842F040021A6097
:10230000B14B0221197084F311888F21202000F035
:1023100087FD2146232000F083FDA84BAC481B78A5
:10232000AC49AD4A8160C260002B52D1DFF8949273
:10233000AA49A74DDFF8C8824846FFF7C9FC05F156
:10234000100628244FF0580A204600F0C1FD8346AD
:10235000601CC0B200F0BCFD0BEB002000B207EE29
:10236000900A9B4B9E4993ED037A25F8020BF8EEF9
:10237000E76A0234C6EE877A2B2352464846E4B217
:10238000F5EEC07AF1EE10FAE6EC017AB7BFF1EEA5
:10239000677AFDEEE76AFDEEE76A2D23B8EEE67A8E
:1023A000CDED006A77EEC77A67EE887AFCEEE77AC1
:1023B000CDED017AFFF78CFC2E2C02D018F801AB82
:1023C000C2E740F2DC50FEF77BFF7C4B1B78002B12
:1023D000AED00821202000F023FD202383F31188B4
:1023E000794B1B78022B00F0DD81774A01231370B3
:1023F000002383F311884FF47A70FEF761FF4FE7F3
:1024000078497048FFF764FC202383F31188764BEA
:10241000764A5A6000F07CFA734B1D7084F3118881
:1024200014260DF10B032A4603A900941E208DF8F3
:102430000D608DF80C4000F073FB01200DF10B03D3
:102440002A4603A98DF80C00009460261E208DF802
:102450000D6000F065FB2A460DF10B03009403A903
:102460001E208DF80C508DF80D40DFF8989100F08B
:1024700057FB5F4B5F4AC7ED038ABA603B614F4B26
:102480001C78002C70D149464E485B4DDFF87881AE
:10249000FFF71EFC04211E2000F0B2FC03210646BB
:1024A0001E2000F0ADFC082106EB00261E203E8019
:1024B00000F0A6FC072106461E2000F0A1FC062124
:1024C00006EB00261E207E8000F09AFC05210646C1
:1024D0001E2000F095FC022C06EB0020B880394E3F
:1024E0004FF0580233D1B7F90430D7ED046A07EE44
:1024F000903AF8EEE77A87EEA67A87ED077AD5ED7F
:10250000007AF5EEC07AF1EE10FAB8BFF1EE677A14
:10251000FDEEE76A4FF02B03B8EEE67AB8BF2D2345
:1025200077EEC77ACDED006A67EE887A0134FCEE6B
:10253000E77A4146CDED017A3046FFF7C9FB032C1F
:1025400005F104059BD02D4B022C1A5DCBD037F939
:102550001430D7ED036A07EE103AB8EEC77AC7EE2B
:10256000267AC5ED007ACCE7022400250DF10B0395
:102570002246009503A91E208DF80C408DF80D40D1
:1025800000F0CEFA202383F3118800F081FA164A76
:102590000123137085F311882DE700BF980B0020ED
:1025A0002037000834080020CDCC1C42C1FA50442A
:1025B00000007A4400802744C80D0020A40D0020AC
:1025C00028370008A808002020090020203800082B
:1025D000540800200000FA436F1283423437000889
:1025E00050370008B4370008700800201038000881
:1025F0000000164400002040480800200038000871
:1026000001380008C0370008DC37000870497148FD
:10261000FFF75EFB202686F311886F4B6F4A5A60E6
:1026200000F076F96C4B02251D7084F311884FF091
:10263000770E2A4600940DF10B0303A919208DF89B
:102640000DE08DF80C6000F06BFA00942A460DF155
:102650000B032325902403A919208DF80C508DF825
:102660000D4000F05DFA5E4BC3ED029A83ED039AD4
:102670005C4B1B78002B4CD15B495648584EDFF819
:102680007C91DFF87CA1FFF723FB06F110082824DA
:102690004FF0580B2146192000F0B2FB611C054693
:1026A000C9B2192000F0ACFB05EB002000B207EE28
:1026B000900A4B4BF8EEE76A93ED037A26F8020B8B
:1026C000C6EE877A02342B2342485A465146E4B27A
:1026D000F5EEC07AF1EE10FAE8EC017AB7BFF1EE50
:1026E000677AFDEEE76AFDEEE76A2D23B8EEE67A3B
:1026F000CDED006A77EEC77A67EE887AFCEEE77A6E
:10270000CDED017AFFF7E4FA2E2CB1D019F801BB18
:10271000C0E70024009420250DF10B03022203A939
:1027200019208DF80D408DF80C5000F0F9F985F363
:10273000118800F0ADF9284A0123137084F3118841
:1027400059E613460A21294A186AFEF729F9284B47
:10275000284A586A0A21FEF723F9254B26491C6AA4
:10276000586A5B68256804685889214B4A6CDB69A4
:1027700042F480524A6403F10C02AA60A26002058E
:1027800023D51B4A1A4C916AD26A21F4F04122F4F3
:10279000F04241F4205142F4205240F44170A162D1
:1027A000E262A4E5124B124ADB69106A00221A6049
:1027B0005A60FEF7C5F80E4B586AFEF7C1F80E4A8C
:1027C000536C23F4805353640FE640F4417083E567
:1027D00068370008A808002070080020103800089A
:1027E00018080020A40D00207837000851160008B2
:1027F0002009002041140008003802400138000878
:102800009C370008000000000000000000000000ED
:10281000144B70B4002204469D690262A868A16846
:1028200081420BD822771B689A689142FBD95A687B
:102830006260236014605C6070BC70472A771A463F
:10284000126891688842FBD95068686001262A6046
:10285000056055602677294620469C6170BCFDF7CF
:1028600037BD00BF980B00200000000000000000F2
:10287000014B5B6883607047001000E000000000BF
:10288000034A516853685B1A112BFBD9704700BF8C
:10289000001000E000000000000000000000000048
:1028A000F8B5174F57F8044FBC4220D00546002614
:1028B00002E02468BC421AD0E3682B43E36015B100
:1028C00022691342F5D06068A368416B027F0B4315
:1028D0000A2A43630CD00B2AEBD1026A32EA0303C3
:1028E000E7D10662FEF7FCFC2468BC42E4D1F8BDE7
:1028F000026A1342DDD00662FEF7F2FCF4E700BF85
:10290000A8080020000000000000000000000000F7
:10291000F8B5534C2678656B40F2564240F21643A8
:10292000012EA262636249D02B46E16A226B0F68D6
:10293000D2F800E060684B4E416805F11002BA60C1
:102940004FF41064CEF808204FF4004700222F60A7
:102950002A606C605C684FF6C0773C40077A5C6028
:102960005C68B14244F02A045C601EDD3E4CA1422A
:1029700007DC022F69D0032F5AD048F6FF720D21D1
:102980001962DA6101781A68022992B24AD00329E1
:1029900045D0012905D01A602B6843F001032B6054
:1029A000F8BD22F00A0292B2F5E72B2449002F4A23
:1029B0001C62B2FBF1F2C2F30B02E2E72C4FE06AB9
:1029C0003B6A2C4A43F4001300213B6223463962E0
:1029D0000521FDF7E5FF2346274A206B0521FDF77A
:1029E000DFFF616A254B386C254A41EA030CA16A76
:1029F00040F400104FF0500E38640B4382F81FE390
:102A00004FF00040C4F824C0C2F88001A3621060F7
:102A1000636B82F820E3C2F88461566085E742F078
:102A20000A02B8E722F0080292B242F00202B2E7CC
:102A300001EB810202EB82010C4AB2FBF1F26FEA78
:102A400082426FEA924292B299E701EB4101074A52
:102A5000B2FBF1F26FEA42426FEA524292B28EE763
:102A600070080020A0860100801A060080DE800227
:102A700000380240C1180008611400080000030279
:102A800000E100E000000000000000000000000085
:102A900070B5204D2B78012B3AD0286B6B6B0268F8
:102AA00000214FF400441C6019605960596113689B
:102AB00023F01F0313601368DB07FCD4067AE96A6E
:102AC00044680A683D23B3402360136823F01F0362
:102AD0001360146814F00104FBD10E7A4A683D2398
:102AE000B3401360FDF72CFFE86AFDF729FF0A4B9E
:102AF0000A4A4FF000400121C3F8800083F81F43C9
:102B0000C3F8841083F82043136C23F40013136478
:102B100070BD00BF7008002000E100E000380240F6
:102B20002DE9F041202482B084F311882F4F40001A
:102B30000326002538843E70BD60786B85F31188CC
:102B4000FE6A01963E6BD7F82480D6F800C0019E3D
:102B5000D6F800E0BE6ACCF80060CCF80C104FF05C
:102B60008046CCF80420CEF80080CEF80C30089BCC
:102B7000CEF804302246D6F824E02946344601E057
:102B800081F3118882F3118883699E0702D4036858
:102B90009D050FD5636AA3EB0E03B3F5FA7FEFD360
:102BA00005233B704FF0FF30002383F3118802B000
:102BB000BDE8F08143680E4C0E49A26943F40073EE
:102BC0004360036843F48073036003201162FA6179
:102BD000FEF796F9A369186A431CE1D002233B7003
:102BE000002383F3118802B0BDE8F0817008002053
:102BF000980B00208C08002000000000000000005E
:102C00002DE9F0470021204C02254FF007084FF036
:102C10000F0C4FF0010E03270DE0266A26EA020290
:102C200042EA09022262226813402B4323604008D3
:102C300027D0AD0001314B0001F00702920007FAE6
:102C400003F310F0010F08FA02F90EFA01F66FEA29
:102C500003030CFA02F2EAD0D4F804A02AEA06062A
:102C60006660A6681E40A660E668072906EA0306B5
:102C7000E660D2D9666A26EA020242EA0902626284
:102C8000D1E7BDE8F08700BF00000240000000006F
:102C90002DE9F041294E376E07EB40130546D3F876
:102CA000084BC3F8084B200703D5D7F81438190789
:102CB00039D4E20723D5D7F81438DB071FD505BB75
:102CC00096F84030002B36D0F1688A69488A5468FB
:102CD000B4FBF0F300FB1343B3B91068D368984218
:102CE00012D21B1A82E82800202383F3118813488C
:102CF0002946FFF785FA85F31188BDE8F081BDE824
:102D0000F08106EB8503D9687389CC680122AA405B
:102D100023EA02037381002CF1D029462346074899
:102D2000BDE8F041184706EB85032946DB683046CD
:102D30005B689847BDE7BDE8F08100BF50090020FF
:102D40002DE9F0412A4E356E05EB40130746D3F8C6
:102D50000849C3F80849E10703D5D5F81038DA0760
:102D60000AD4230606D50123D5F8342803FA07F739
:102D7000174218D1BDE8F08106EB8003D9684B6992
:102D80001868DA68904223D33389D1F80880012289
:102D9000BA4023EA02033381B8F1000FE1D039468B
:102DA0003046C047DDE7202383F31188D5F8342867
:102DB000F36E104822EA0702C5F834281F430021A9
:102DC000F766FEF7A5FA002383F31188BDE8F081CA
:102DD000121A4FF0000883E80401202383F31188BE
:102DE00039463046FFF7B4F988F31188B9E700BFD8
:102DF00050090020C0090020000000000000000071
:102E000000B585B001228DF80B10009203AB0DF1D7
:102E10000B01FFF785FE9DF80C0005B05DF804FB83
:102E2000F0B5202783B087F31188264C6268138998
:102E30005268012505FA03F39BB25383002686F3FB
:102E400011888DF804008DF8051087F31188032090
:102E5000226A20701268636AE16ADFF86CE01B681E
:102E6000D4F828C0C2F80CE04FF0020EC2F804E01B
:102E700041F48061C2F800C00DF1040CC3F80CC02D
:102E8000C3F804E019601168DFF840E029431160DD
:102E90001968DEF818E022462943196042F808EF65
:102EA000CEF82020FEF72CF886F3118887F31188DE
:102EB00063681A895B689540ADB21D8386F31188FB
:102EC00003B0F0BD20090020700D0020980B0020F9
:102ED0002DE9F04184B0002660F07F00FF238DF8DB
:102EE00008008DF809308DF80C608DF80D602027F2
:102EF00087F31188264C626813895268012505FA08
:102F000003F39BB2538386F3118887F31188E16A38
:102F1000226A01910320A16A636A207012681B680B
:102F200041F4806E01990DF10C0CC2F80CC041F413
:102F300080684FF0020C02A9C2F804C0C2F800E099
:102F4000D960C3F804C0C3F800801168DFF844E01A
:102F5000294311601968DEF818E0224629431960F8
:102F600042F808EFCEF82020FDF7CAFF86F311885B
:102F700087F3118863681A895B689540ADB21D8339
:102F800086F311889DF80D0004B0BDE8F08100BF04
:102F900020090020980B0020000000000000000025
:102FA0001A4B1B4C1A694FF0FF3100222DE9804863
:102FB00019611A61586959615A61186A60F0805044
:102FC00018621A62586A59625A62196C41F080514B
:102FD0001964216841F480712160196F01F4407116
:102FE000B1F5007F89B003D04FF4803119671A67BB
:102FF0000748084E4368084A084C094F002123F44B
:10300000007343608E460D4631600DE0003802408B
:10301000007000404C0E00203C3800081060024058
:10302000CC0D002052F80C4C256047F83E500EF1B4
:10303000010EBEF1100F02F10C02F3D1DFF8609324
:10304000BD4BDFF86083DFF860C3DFF860A3BB4FE0
:10305000BB4CBC48BC4EBD494FF0FF32C9F80820FC
:10306000C9F80C209A60DA60D8F8303043F01F03BA
:10307000C8F83030D8F85090B54B49F01F09C8F85F
:103080005090CCF804504FF6FF79CCF80820CCF8DB
:103090000CA0DFF81CA3CCF81490CCF820A0DFF82B
:1030A00014A3CCF824A00AF12A5A0AF5B01ACCF8D5
:1030B00000A00CF1A95C0CF5FA1C0CF2555C7D60CB
:1030C000BA60C7F80CC04FF0806CC7F81490DFF8F6
:1030D000E8A2C7F820C04FF4A86CC7F824C0C7F80E
:1030E00000A0DFF8D8A26560A260C4F80CA0DFF8E9
:1030F000D0A2C4F81490C4F820A0DFF8C8A2C4F885
:1031000024A0DFF8C4A2C4F800A0924C45608260FD
:10311000C46040F6FF74446137468F4C0562DFF8A7
:10312000ACA2456204608D4C8D484D608A60CC60D5
:10313000C1F814908B4C0D624D62C1F800C05D6007
:10314000DFF88CC29A60D860C3F814901D625D628B
:103150001D6047F804ABDFF87C9277600CF1480300
:103160000127C4F8349004F10C0965606561E561DC
:10317000C4F82CC02363C4F80C90C4F810902770D6
:1031800006F1540906F10C04F4603461756137727C
:10319000754CC6F81890C6F82490C6F82090DFF851
:1031A00038927248F464C6F8749006F1640406F12B
:1031B0003009F461F463B4647464C6F830900CF1BF
:1031C0006004C6F83490DFF8149269490462C0F8CC
:1031D0001C900CF18404DFF80892664B4462C0F83E
:1031E0002890654C077000F10C0906F1740A4560DF
:1031F00085604561C462C0F80C9001F10C04C0F810
:1032000010905E48C6F838E0C6F840A00F704D60D8
:103210008D604D61CC600C61B562F6623665C86147
:103220001F70D8F84000564C5D603843C8F8400025
:103230000CF13000D4F808B048625248886230304F
:10324000C8624FF0A04018660CF1240A4E481D6277
:103250001D635D625D639D629D63DD62DD631D8153
:103260005D811D675D675866DFF87891474BC1F84F
:1032700020A04BEA070B4FF08041C4F808B04FF094
:10328000805042F2CF0C8024C1F828C0CA628D6100
:103290004D63CD604D604F610F6089F81C43C9F8E4
:1032A0008001C9F800009D60D8683949DFF838C14D
:1032B0004FF6FF0420400143D960DCF80C1035487C
:1032C000354C41F08071CCF80C10016862623943D2
:1032D0004FF0200B016083F81FE004F11C0183F81C
:1032E00022B002A800230292246000226460CDE98B
:1032F0000623E1612162039504950595A56024618B
:103300006461A5626567FFF7B3FA02A8FDF7B0FD37
:10331000224AD4F814C0049B636704F1300E02F112
:10332000100A4023C4F844C09561C2F810A0C2F846
:1033300014A084F84D5059E000640240000402409B
:1033400000080240000C0240A808002000100240C3
:10335000001C02405551550000010055455555557A
:1033600050555555700800203114000820090020E0
:10337000740D00205009002046000106003800406E
:10338000002004E0160001001039000800ED00E004
:103390000003FA05001000E0980B0020A80D0020A3
:1033A00000600240003802400000024054500140DA
:1033B0000000565500AA0A00802028001555550522
:1033C00000500060000606008180200230390008AD
:1033D00030380008005400400044004000300140F4
:1033E0001600010600E100E0F0ED00E0A56665666C
:1033F00084F84E70A5642464A363E366CCF810E0FF
:10340000C4F814E0C4F818E004F1540EC4F854E011
:10341000DFF8F8E1C2F800E09560D5606F487049C8
:10342000DFF8ECC1019304F15802A265E2656D4A30
:1034300084F84C7020F0070021F00701CCF8000060
:10344000116085F3118862B6A269674991618BF3B7
:1034500011886169DFF8BCE1DFF8BCA1C4F88070B5
:1034600004F5BA72C4F88420022004F17802C4F88A
:10347000B47084F8967084F89400C4F88C10C4F882
:10348000B85184F89550C4F8B050C4F8AC50C4F8A2
:103490009050C4F88840C4F8B4E1C4F8D4A104F151
:1034A0009C070A6104F1A0011046C4F89C70C4F89E
:1034B000A010C4F8A4106261FFF7AAF985F311887F
:1034C0004A4AC4F890208BF31188327A019B012A72
:1034D00075D0736F464A93426DD002F58062934275
:1034E00069D040F245429A6044F24001012742F21D
:1034F0002C12002519614FF002085F61DA601D602F
:103500001A685B6886F8088085F311880420FFF745
:1035100077FB0820FFF774FB44F62060FDF7D0FE30
:10352000202383F31188334B626933489F7741210D
:10353000C3F82C035A61C3F84CA3C3F8305383F883
:103540001C805D779D635D639D611C6103F53B7726
:10355000D96303F12406136103F128021846DF60E2
:1035600099605E629A62DA626361FFF751F985F3EE
:103570001188224F224D234C234E02E03220FDF7CA
:103580009FFE2369DA07F9D54FF4FA70FDF798FE2C
:103590002369DB07F2D42B680133A6FB0312520820
:1035A00002EB42029B1A4FF4FA7001222B603A7030
:1035B000FDF786FEE2E740F68B029A6094E7D8F8C2
:1035C0004020C02142F40032C8F8402089F8261378
:1035D000C9F88431C9F804307BE700BFAF1100207F
:1035E00000000120500E0020F038000820390008AB
:1035F00000100140580E002081220008A40D002078
:10360000C80D002000000240ABAAAAAA310300089E
:10361000540E0020E1030008E90200080000000049
:10362000000000000000000000000000000000009A
:103630000100000000000000000000000000000089
:1036400050390008A8110020A8110020A81100205E
:1036500050390008000000000000000000000000D9
:1036600050390008000000000000000000000000C9
:1036700050390008000000000000000000000000B9
:1036800050390008000000000000000000000000A9
:103690005039000800000000000000000000000099
:1036A0005039000800000000000000000000000089
:1036B0005039000800000000000000000000000079
:1036C00000000000000000000000000000000000FA
:1036D000286E756C6C2900000000000000000000DE
:1036E000000000006105000891040008F1030008D3
:1036F00040004000000800200008002001000000F9
:103700001008002000000000000000000000000081
:10371000444D41206661696C7572650000000000CF
:103720004D454D53000000004779726F73636F7011
:10373000650A0D004759524F53434F5045204C33B3
:103740004744323020646174613A0D0A0000000081
:1037500025633A256325642E252E3364206465672E
:103760002F730D0A00000000416363656C65726F82
:103770006D657465720A0D00414343454C45524FD7
:103780004D45544552204C534D333033444C4843FF
:1037900020646174613A0D0A0000000025633A2537
:1037A0006325642E252E3364206D2F735E320D0A3F
:1037B00000000000436F6D706173730A0D0000001C
:1037C000434F4D50415353204C534D333033444CB1
:1037D000484320646174613A0D0A000025633A256C
:1037E0006325642E252E33642047617573730D0A9B
:1037F00000000000000000000000000000000000C9
:1038000058595A00000000000000000000000000AD
:1038100001000000801A0600020000000000000005
:10382000000000000010024003000B000000000038
:10383000106002400860024000000B002860024057
:103840000860024006010C0040600240086002402F
:1038500010020D00586002400860024016030E007E
:10386000706002400C60024000040F00886002405B
:103870000C60024006051000A06002400C6002408F
:1038800010061100B86002400C60024016072F00BD
:1038900010640240086402400008380028640240B6
:1038A000086402400609390040640240086402408E
:1038B000100A3A005864024008640240160B3B00AC
:1038C000706402400C640240000C3C0088640240BA
:1038D0000C640240060D4400A06402400C640240E7
:1038E000100E4500B86402400C640240160F4600FA
:1038F0006D61696E00168018040444080C101418D9
:10390000001C1D1E00000000000000000000000060
:1039100080000000400100000400000000000000E2
:1039200069646C65000000000000000000000000F9
:103930002111000841120008A1110008B11200086D
:1039400091110008A112000811110008311200089D
:04000005080001C12D
:00000001FF
